:020000040800F2
:1000000058050020AD430008810100088301000865
:10001000870100088B0100088F0100080000000024
:100020000000000000000000000000009301000834
:1000300095010008000000009701000899010008E0
:10004000C7430008C7430008C7430008C743000868
:10005000C7430008C7430008C7430008C743000858
:10006000C7430008C7430008C7430008C743000848
:10007000C7430008C7430008C7430008C743000838
:10008000C7430008C7430008C7430008C743000828
:10009000C7430008C7430008C7430008C743000818
:1000A000C7430008C7430008C7430008C743000808
:1000B000C7430008C7430008C7430008C7430008F8
:1000C000C7430008C7430008C7430008C7430008E8
:1000D000C743000849020008A1010008C7430008FF
:1000E000C7430008C7430008C7430008C7430008C8
:1000F000C7430008C7430008C7430008C7430008B8
:10010000C7430008C7430008C7430008C7430008A7
:10011000C7430008C7430008C7430008C743000897
:10012000C7430008C7430008C7430008C743000887
:10013000DFF80CD005F0F8FC004800474501000846
:100140005805002010B500F00DF900F04BF900F053
:100150009DF803F034FA03F007FB03F0C8FD18B173
:1001600005A005F003FD02E004A005F0FFFC03F08C
:1001700028FE002010BD000066000000690000009D
:10018000704700BFFEE700BFFEE700BFFEE700BF0D
:10019000FEE770477047704710B500F0CFF810BD0C
:1001A00010B540F225512E4804F053FE98B31021AB
:1001B0002C4804F01AFA2C480088C4B2A4F131008B
:1001C000062838D2DFE800F0030C1920282F27A0DA
:1001D00005F0CCFC03F022FB25A005F0C7FC2BE0CA
:1001E00024A005F0C3FC03F05AFB03F029FB03F045
:1001F00039FB1FA005F0BAFC1EE01FA005F0B6FCFD
:100200001BA005F0B3FC17E01CA005F0AFFC18A084
:1002100005F0ACFC10E016E019A005F0A7FC14A056
:1002200005F0A4FC08E003F02FFB03F05CFB10A03A
:1002300005F09CFC00E000BF00BF03F0EBFA1021CA
:10024000084804F0D0F910BD10B540F225510D4812
:1002500004F0FFFD10B10C480088C4B210BD0000CE
:10026000004400400010014004440040310A0000F6
:1002700061000000320A0000330A0000340A000066
:10028000350A00000038014004380140304909684F
:10029000304AB1FBF2F0B0F1807F01D301211CE0C4
:1002A00020F07F41491E4FF0E022516100BF5117FD
:1002B000002905DA0F210901274A0B23D15404E054
:1002C0000F210901254A5317D15400BF00214FF0D7
:1002D000E022916107211161002109B100BFFEE711
:1002E0004FF0E020006920F001004FF0E0210861AC
:1002F00070471B4908604FF0E021096941F0010196
:100300004FF0E022116100BF154909680029FBD1B7
:10031000704700EB8001062282EA4101104A116019
:100320004FF0E021096941F001014FF0E022116135
:1003300000BF0B4909680029FBD1704708480068D5
:1003400020B107480068401E05490860704700005A
:10035000C000002040420F0018ED00E000E400E083
:100360000000002000B585B00121042004F043FB0B
:100370000121480404F04CFB0420ADF810001820C3
:100380008DF8130003208DF8120004A9A14804F091
:100390007FF80820ADF8100004208DF8130004A9A0
:1003A0009C4804F075F84FF4165000900020ADF80A
:1003B0000400ADF80600ADF80800ADF80C000C2004
:1003C000ADF80A006946944804F0C3FB012240F2EC
:1003D0002551914804F055FC01218F4804F045FC5B
:1003E00005B000BD08B54FF4C06004F075FD2620CF
:1003F0008DF8000001208DF801008DF802008DF8C5
:100400000300684604F06DFD08BDF0B503460D46D7
:100410001646002729460A2E03D0002008702846D9
:10042000F0BD33B9302001F8010B002008702846D8
:10043000F6E7002B03DA2D2001F8010B5B4242F2B4
:1004400010720DE093FBF2F404B937B104F13000FF
:1004500001F8010B04FB123301270A2092FBF0F292
:10046000002AEFDC002008702846D9E770B5044662
:100470000D46012003F08FF9E1B2674804F065FCF6
:1004800000BF6548008810F0800FFAD0204670BD8C
:100490000FB42DE9F04186B080460EA80190AFE080
:1004A0000D9800785C281CD10D98401C0D900078A8
:1004B0006E2809D072280FD10D21404604F045FC6A
:1004C0000D98401C0D900BE00A21404604F03DFCC5
:1004D0000D98401C0D9003E00D98401C0D9000BF3E
:1004E00087E00D98007825287CD10D98401C0D9050
:1004F000007863281CD064282CD0662847D0732845
:100500006BD1019810C801900BE02178404604F0AF
:100510001CFC00BF4021404604F085FC0028F9D0B7
:10052000641C20780028F0D10D98401C0D9058E0F4
:10053000019804C891B20190404604F006FC00BF47
:100540004021404604F06FFC0028F9D00D98401C73
:100550000D9046E0019820C801900A2202A9284681
:10056000FFF753FF02AC0BE02178404604F0EDFBAF
:1005700000BF4021404604F056FC0028F9D0641C1E
:1005800020780028F0D10D98401C0D9029E00198AA
:10059000C01D20F007000190D0E90063019A0832E5
:1005A000019232461DA102A805F0F0FA02AC0BE060
:1005B0002178404604F0C9FB00BF4021404604F0CA
:1005C00032FC0028F9D0641C20780028F0D10D9866
:1005D000401C0D9005E005E0FFE70D98401C0D90D4
:1005E00000BF06E00D9810F8011B0D90404604F086
:1005F000ACFB00BF4021404604F015FC0028F9D0B8
:100600000D98007800287FF44BAF06B0BDE8F001EC
:100610005DF814FB0008014000440040256600001E
:100620000146FF48407A30B1012808D002280AD09C
:10063000032810D10BE04FF4804008800EE041F613
:100640009C7008800AE04FF48050088006E04FF468
:100650000060088002E04FF0FF30704700BFF048B4
:10066000C07C10B10888401008800020F5E70146E2
:10067000EB48007A30B1012807D0022808D00328BF
:100680000CD108E0E74808600BE0E748086008E0A4
:10069000E648086005E0E648086002E04FF0FF30F9
:1006A000704700BF0020FBE708B5DD48807A10B92D
:1006B0004FF0FF3008BD00200090D94A1268D17B6E
:1006C000D74A526810786B46012202F0BFFF10B182
:1006D0004FF0FF30EEE7D24A12685179D04A5268A3
:1006E00010786B46012202F0B1FF10B14FF0FF30DD
:1006F000E0E7CB4A12681179C94A526810786B4614
:10070000012202F0A3FF10B14FF0FF30D2E7C4483E
:1007100090F8240090B30C200090C14A126811791F
:10072000BF4A526810786B46012202F08FFF10B169
:100730004FF0FF30BEE73220FFF7EBFDC020009006
:10074000B748807A10F0010F04D09DF8000040F007
:1007500020000090B24A12681179B14A52681078AC
:100760006B46012202F072FF10B14FF0FF30A1E79B
:10077000AB48407C18B10220009002E01FE000204E
:100780000090A74A1268D17BA54A526810786B4640
:10079000012202F05BFF10B14FF0FF308AE700202A
:1007A00000909F4A126851799D4A526810786B46B2
:1007B000012202F04BFFB0B34FF0FF307AE7042084
:1007C0000090974A12681179954A526810786B46E2
:1007D000012202F03BFF10B14FF0FF306AE7904872
:1007E000807C20B98E48807A10F0010F02D1402021
:1007F000009001E060200090894A12681179884ACF
:10080000526810786B46012202F020FF10B14FF0C1
:10081000FF304FE73220FFF77CFD8148407C18B164
:100820000120009002E01EE0002000907C4A126847
:10083000D17B7B4A526810786B46012202F006FF9A
:1008400010B14FF0FF3035E7754A12685179744A9C
:1008500052681078724B1033012202F0F7FE10B18B
:100860004FF0FF3026E7002024E738B504466C48F7
:1008700090F82400C0B114B10220009001E00020E3
:100880000090674A1268D17B654A526810786B46BF
:10089000012202F0DBFE10B14FF0FF3038BD9DF8B1
:1008A00000105F48417423E05D48807A10B94FF032
:1008B000FF30F3E724B15A48407C08B10020EDE74F
:1008C00014B10120009001E000200090544A126809
:1008D000D17B534A526810786B46012202F0B6FE73
:1008E00010B14FF0FF30D9E79DF800104C4841742B
:1008F0000020D3E738B504464948807A10B94FF054
:10090000FF3038BDBC2C02DB0120009015E0622CCA
:1009100002DB0220009010E02A2C02DB0320009072
:100920000BE0142C02DB0420009006E00A2C02DB12
:100930000520009001E0062000903948C07A9DF81B
:100940000010884201D10020DBE7354A1268917817
:10095000334A526810786B46012202F077FE10B1DC
:100960004FF0FF30CDE79DF800102D48C1720020F8
:10097000C7E770B50446002624F00104284890F823
:10098000240008B1002070BD2548807A10B94FF0CE
:10099000FF30F8E72248057C807A2040204908741F
:1009A0000846007CA04202D04FF0FF3600E000264F
:1009B00014B91B48007D18B10120FFF756FF02E073
:1009C0000020FFF752FF3CB1FFF76EFE20B1144844
:1009D00005744FF0FF30D6E73046D4E738B504460B
:1009E0000F4890F82300A04201D1002038BD14B177
:1009F0003020009001E0002000900948807C20B168
:100A00009DF8000040F002000090054890F8220098
:100A100020B19DF8000040F080000090004A09E0FD
:100A200004000020000003430000834233330342EC
:100A3000333383411268117DFF4A526810786B4648
:100A4000012202F003FE10B14FF0FF30CEE7FA486A
:100A500080F823400020C9E738B50446282C02DD81
:100A60004FF0FF3038BDDCB90020FFF7B7FF0020A2
:100A70008DF8000007208DF80100EF4A1268917C84
:100A8000ED4A526810786B46022202F0DFFD10B189
:100A90004FF0FF30E6E70021E74801750020E1E76D
:100AA0000120FFF79BFF20208DF80000012C06D1CC
:100AB00000208DF801000520FFF71CFF17E0052C32
:100AC00006DC01208DF801000520FFF713FF0EE082
:100AD000142C06DC02208DF801000A20FFF70AFF23
:100AE00005E003208DF801001420FFF703FF9DF8B7
:100AF0000100072101EB8010C0B28DF80100CE4A41
:100B00001268917CCC4A526810786B46022202F03F
:100B10009DFD10B14FF0FF30A4E70821C648817257
:100B200000210173012101750020FFF722FF002041
:100B300098E738B50446C048807A10B94FF0FF30C6
:100B400038BDBD4890F8240010B14FF0FF30F7E7F2
:100B5000B948007D50B134B1282C04DCE0B2FFF775
:100B60007BFF0020ECE70020FFF776FF042C01DA82
:100B7000042404E0B4F57A7F01DD4FF47A744FF475
:100B80007A7090FBF4F0401EC0B20090AA4A12683E
:100B90005178A94A526810786B46012202F056FD3E
:100BA00010B14FF0FF30CBE79DF80000401C4FF430
:100BB0007A7191FBF0F081B29F48C1810146C989E9
:100BC0004810FFF797FE0020BAE738B504469A4868
:100BD000807CA04201D1002038BDF4B3964A12684F
:100BE0001179954A526810786B46012202F07DFD1A
:100BF00010B14FF0FF30EFE79DF8000020F020002B
:100C000000908D4A126811798B4A526810786B46B1
:100C1000012202F01BFD10B14FF0FF30DCE7032092
:100C2000FFF777FB02200090834890F8220020B164
:100C30009DF8000040F0800000907F4890F823006D
:100C400020B19DF8000040F0300000907A4A126810
:100C5000117D794A5268107800E007E06B46012266
:100C600002F0F4FCC0B34FF0FF30B5E7724A1268EF
:100C70001179714A526810786B46012202F035FDF5
:100C800010B14FF0FF30A7E76B48807A10F0010FEA
:100C900005D09DF8000040F02000009004E09DF891
:100CA000000020F020000090634A12681179624A27
:100CB000526810786B46012202F0C8FC10B14FF068
:100CC000FF3089E70320FFF724FB5B4890F8220000
:100CD00018B18020009002E018E0002000905648F3
:100CE00090F8230020B19DF8000040F03000009003
:100CF000514A1268117D504A526810786B460122A1
:100D000002F0A4FC10B14FF0FF3065E74A4884744C
:100D1000002061E738B50446474890F82400A04217
:100D200001D1002038BD24B3434890F8250010B904
:100D30004FF0FF30F6E70020FFF797FD0020FFF7A8
:100D400044FF3D49C88CFFF7F4FE002000903A496B
:100D5000496808786B460122232102F077FC0121C3
:100D6000354880F824100120FFF77FFDFFF79CFC39
:100D700013E00020FFF779FD2F48007C00902E49FA
:100D8000496808786B460122232102F05FFC0021AC
:100D9000294880F82410FFF787FC0020C2E738B507
:100DA000044614F0700F02D00120009005E014B149
:100DB0000020009001E0402000901F4A1268917CC2
:100DC0001D4A526810786B46012202F03FFC20B1A8
:100DD000002119488172481E38BD9DF8000020F09E
:100DE0004000154908730020009014F0400F04D112
:100DF0009DF8000040F00400009014F0200F04D192
:100E00009DF8000040F00200009014F0100F04D193
:100E10009DF8000040F00100009014F0080F04D18C
:100E20009DF8000040F038000090034A1268D17C21
:100E3000014A5268107801E0040000206B4601224C
:100E400002F004FC20B10021F9488172481EC3E77A
:100E500024B1082C02D00020FFF7C0FDF4488472B2
:100E6000002101753220FFF754FA0020B4E738B5AD
:100E70000446EF48807A10B94FF0FF3038BD022C9D
:100E800006D0042C07D0082C08D0102C0CD108E078
:100E9000002000900BE00820009008E01020009057
:100EA00005E01820009002E04FF0FF30E6E700BFB9
:100EB000DF48407A9DF80010B0EBE10F01D100202F
:100EC000DCE7DB4A1268D179D94A526810786B4660
:100ED000012202F0BBFB10B14FF0FF30CEE79DF8CE
:100EE0000000C010D24948720020C7E738B5044658
:100EF000CF48807A10B94FF0FF3038BDFA2C09D0B6
:100F0000B4F5FA7F09D0B4F57A7F09D0B4F5FA6F59
:100F10000CD108E0002000900BE00820009008E0D1
:100F20001020009005E01820009002E04FF0FF3004
:100F3000E3E700BFBE48007A9DF80010B0EBE10F78
:100F400001D10020D9E7BA4A12689179B84A5268AB
:100F500010786B46012202F079FB10B14FF0FF30A0
:100F6000CBE79DF80000C010B14908720020C4E72B
:100F70002DE9FC5F06460F460025AD494968087813
:100F800001AB03220D2102F0B0FB10B10720BDE838
:100F9000FC9F9DF8040000F01F008DF804009DF8F0
:100FA000050000F01F008DF805009DF8060000F018
:100FB0001F008DF80600002454E056F8240057F86E
:100FC0002410B0EB010B01D4594601E0CBF1000134
:100FD000084604F0A2FB4FF08F41009004F0D8F9CE
:100FE000814601A8005D68B39249086804F09EFB41
:100FF00083460146904804F0CBF9804604E08F49CF
:10100000404604F08FF9804601A8005D401E10F0B4
:10101000FF0001A90855F2D14146484604F0B8F94D
:1010200083464FF07E5104F077F982462AF0004B58
:1010300080488169584604F0E7FB12D20120A040A5
:1010400005430EE07B480169484604F0D3FB05D315
:1010500078484169484604F0D7FB02D20120A040FD
:101060000543641C032CA8DB284690E77CB50546A5
:101070006F494968087801AB04220D2102F035FB65
:1010800008B107207CBD9DF80700C0F301109DF852
:10109000041001F0E00140EAE1008DF800009DF845
:1010A0000700C0F381009DF8051001F0E00140EA5F
:1010B000E1008DF801009DF8070000F003009DF8A5
:1010C000061001F0E00140EAE1008DF80200002482
:1010D0001CE01DF8040018B9002045F8240013E0B6
:1010E000574845F8240006E055F82400554904F017
:1010F00019F945F824001DF80400401E10F0FF0007
:101100000DF80400F0D100BF601CC4B2032CE0DB7A
:101110000020B7E72DE9FE4F06460F46002568463A
:10112000FFF7A4FF002440E056F8240057F82410ED
:10113000B0EB010A01D4514601E0CAF100010846B2
:1011400004F0EBFA83464FF08F4104F021F980461A
:101150005DF82400002104F04DFB16D05DF824104A
:10116000404604F015F982464FF07E5104F0D4F861
:10117000814629F0004A2F48416A504604F044FB5A
:1011800012D20120A04005430EE02A48C169404622
:1011900004F030FB05D32748016A404604F034FBD5
:1011A00002D20120A0400543641C032CBCDB28466E
:1011B000BDE8FE8F2DE9F74F92B006460C460120A0
:1011C0008DF8200000208DF82100194A1268917CCA
:1011D000174A5268107808AB022202F037FA20B1A1
:1011E0004FF0FF3015B0BDE8F08FC820FFF791F841
:1011F00000208DF820000E4A1268D17B0C4A5268FC
:10120000107808AB012202F021FA10B14FF0FF3044
:10121000E8E7074A12685179054A5268107808AB26
:10122000012202F013FA78B14FF0FF30DAE7000044
:10123000040000201C72000800B04C4554E3853FB8
:101240007B14AE3E1D5A843FFF4A1268917CFE4AD1
:101250005268107808AB012202F0F8F910B14FF093
:10126000FF30BFE7F84A1268D17DF74A526810781C
:1012700008AB012202F0EAF910B14FF0FF30B1E7FC
:10128000F14A12681179F04A5268107808AB0122CD
:1012900002F0DCF910B14FF0FF30A3E70C208DF81D
:1012A0002000E94A12681179E74A5268107808ABC1
:1012B000012202F0CBF910B14FF0FF3092E70F207E
:1012C000FFF727F8E048806A407A8DF82000DE4A70
:1012D00012689178DC4A5268107808AB012202F05B
:1012E000B5F910B14FF0FF307CE7D748806A007A3B
:1012F0008DF82000D44A12685178D34A5268107889
:1013000008AB012202F0A2F910B14FF0FF3069E7FB
:10131000149838B1CC48806A807A40F0E0008DF8AB
:10132000200004E0C848806A807A8DF82000C64A10
:1013300012689179C44A5268107808AB012202F011
:1013400085F910B14FF0FF304CE7149838B1BE4822
:10135000806AC07A40F0E0008DF8200003E0BB48CE
:10136000C07A8DF82000B84A1268D179B64A52681E
:10137000107808AB012202F069F910B14FF0FF308C
:1013800030E7149810B1C820FEF7C3FF40208DF855
:101390002000AD4A12681179AB4A5268107808AB48
:1013A000012202F053F910B14FF0FF301AE7782014
:1013B0008DF82000A44A12685179A34A5268107827
:1013C00008AB012202F042F910B14FF0FF3009E7FB
:1013D0009E498889FEF79DFF00208DF820009A4ADB
:1013E00012685179984A5268107808AB012202F0CD
:1013F0002DF910B14FF0FF30F4E6934A1268917A5C
:10140000914A5268107808AB022202F06EF910B1CE
:101410004FF0FF30E6E69DF821009DF8201040EAED
:10142000012006900C21069890FBF1F0C5B2002037
:10143000B06070603060A06060602060079065E020
:10144000814A1268D17A804A5268107808AB0C221F
:1014500002F04BF910B14FF0FF30C3E69DF82100C8
:101460009DF8201040EA012000B2ADF810009DF870
:1014700023009DF8221040EA012000B2ADF81200CE
:101480009DF825009DF8241040EA012000B2ADF837
:101490001400BDF91010206808442060BDF9121036
:1014A000606808446060BDF91410A0680844A0603A
:1014B0009DF827009DF8261040EA012000B2ADF803
:1014C00008009DF829009DF8281040EA012000B28C
:1014D000ADF80A009DF82B009DF82A1040EA012083
:1014E00000B2ADF80C00BDF9081030680844306057
:1014F000BDF90A10706808447060BDF90C10B0683E
:101500000844B0600798401CC0B207900798A842F2
:1015100096DB4E48006803903768F8171022119048
:101520003846119903F065FECDE900010023039AC6
:1015300003F032FE2A460023CDE9040103F02CFE1D
:101540003060424800680390D6F804804FEAE870A3
:10155000102210904046109903F04BFECDE9000197
:101560000023039A03F018FE2A460023CDE9040164
:1015700003F012FE7060354800680390D6F80890BA
:101580004FEAE97010220F9048460F9903F031FEA0
:10159000CDE900010023039A03F0FEFD2A46002353
:1015A000CDE9040103F0F8FDB060284840680390DD
:1015B000D4F800A04FEAEA7010220E9050460E991F
:1015C00003F017FECDE900010023039A03F0E4FDC8
:1015D0002A460023CDE9040103F0DEFD20601B480C
:1015E00040680390D4F804B04FEAEB7010220D90DD
:1015F00058460D9903F0FDFDCDE900010023039A43
:1016000003F0CAFD2A460023CDE9040103F0C4FD1E
:1016100060600E4840680390A068C1171022CDE9B1
:101620000B1003F0E6FDCDE900010023039A03F05F
:10163000B3FD2A460023CDE9040103F0ADFDA0600F
:10164000A068002809DD03E0040000201C720008E7
:10165000A068A0F58030A06003E0A06800F58030AD
:10166000A0600020BEE50146FD48007C0870002017
:1016700070470146FA4890F8240010B14FF0FF304F
:101680007047F748C08908800020F9E70146F44810
:10169000C07A082817D2DFE800F01704070A0D10F7
:1016A0001318BC20088013E06220088010E02A2074
:1016B00008800DE0142008800AE00A20088007E076
:1016C0000520088004E000BF00BF0020088000BFA4
:1016D00000BF002070470146E148407A30B1012840
:1016E00007D0022808D003280CD108E00220087097
:1016F0000BE00420087008E00820087005E01020C6
:10170000087002E04FF0FF30704700BFD448C07C43
:1017100018B108784006000E08700020F4E7014672
:10172000CF48007A30B1012807D0022809D0032819
:101730000FD10AE0FA2008800EE04FF4FA7008801A
:101740000AE04FF47A70088006E04FF4FA600880EF
:1017500002E00020088000BF00BF002070472DE994
:10176000F04F8DB083460F4602200C90BC4890F895
:10177000240020B10020FFF7CDFA012600E000266A
:1017800003A8FFF7CCFF05A8FFF7A5FF01A8FFF707
:101790007DFF02A8FFF76DFFB14890F80AA004A8EA
:1017A000FFF761FF002407E0002239465846FFF7A3
:1017B00001FD00B902E0641C022CF5DB00BF022C25
:1017C00001D1002528E0002407E0012206A909A88C
:1017D000FFF7F0FC00B902E0641C022CF5DB00BF4F
:1017E000022C01D1002517E006A93846FFF792FC2C
:1017F00000F0FF0809A95846FFF7BAFB00F0FF09FF
:101800000025B9F1000F01D145F00105B8F1000F35
:1018100001D145F0020500BFFF2091490872FF2168
:101820008F484172C1724FF6FF71C181FF218172F1
:10183000017401210173BDF80C00FFF757FB9DF8FF
:101840001400FFF714FBBDF80400FFF753F8BDF8D0
:101850000800FFF76EF95046FFF7A1FA9DF8100057
:10186000FFF787F816B10120FFF754FA28460DB0AC
:10187000BDE8F08F70B588B002A905A8FFF76FFF2B
:101880000446072C3FD101A8FEF7F1FE059803F0AE
:1018900044FF0646019903F045FD054603F04BFF62
:1018A0000590069803F039FF0646019903F03AFDCA
:1018B000054603F040FF0690079803F02EFF06460A
:1018C000019903F02FFD054603F035FF079005A8A9
:1018D00000F053FF6846FEF7A3FEBDF80010029823
:1018E00048430290BDF80010039848430390BDF8A8
:1018F000001004984843049002A800F0D9FF59A0B2
:1019000004F034F902E060A004F030F908B070BDD2
:10191000014691F90020002A01DD00201EE091F926
:101920000020002A01DA042018E091F90120002AA1
:1019300001DD012012E091F90120002A01DA0520E1
:101940000CE091F90220002A01DD022006E091F965
:101950000220002A01DA062000E00720704710B5B7
:1019600004462046FFF7D4FF0346E01CFFF7D0FFF4
:1019700043EAC00083B2A01DFFF7CAFF43EA80100C
:1019800083B2184610BD704738B5002419E03448BA
:101990000068C07AA04204D031480068407DA0426F
:1019A00000D10CE02E49496808786B460122214697
:1019B00001F09BFE10B14FF0FF3038BD00BF601C3E
:1019C000C4B2274840680079A042E0DC0020F4E778
:1019D00070B504460D4622480068C07AA04204D083
:1019E0001F480068407DA04202D14FF0FF3070BD1B
:1019F0001B4840680079A04202DC4FF0FF30F6E758
:101A00001749496808782B460122214601F06DFEEE
:101A1000EDE71CB580208DF80000114A1268917C1A
:101A20000F4A526810786B46012201F00FFE10B188
:101A30004FF0FF301CBD6420FEF76BFC00208DF8DA
:101A40000000074A1268917C054A526810786B467C
:101A5000012201F0FBFD10B14FF0FF30EAE725E075
:101A60000400002073657474696E67206269617395
:101A70002073756363657366756C6C79202E2E2EEA
:101A80002E2E2E0A000000006269617320686173C7
:101A9000206E6F74206265656E206D6F6469666983
:101AA0006564202E2E2E2E2E2E0A0000FF4A12686C
:101AB000917DFE4A526810786B46062201F015FEB1
:101AC00010B14FF0FF30B5E79DF80500C007400F9B
:101AD0009DF8031001F0010140EA41009DF801105A
:101AE00001F0010140EA010494B1012C03D101216C
:101AF000EE48C17431E0022C03D10021EB48C174DF
:101B00002BE02146EAA004F031F84FF0FF3091E7D6
:101B1000E64A1268D178E54A526810786B4601228D
:101B200001F0E3FD10B14FF0FF3083E79DF80000B6
:101B300000F00F042CB9E84804F018F84FF0FF301B
:101B400078E7042C06D1E5A004F010F80121D7486D
:101B5000C17402E00021D548C174FF21D3488172CD
:101B6000FF20D2490872FF21D0484172C1724FF65E
:101B7000FF71C181FF21017481740121017380F81B
:101B80002210002180F82310417501750830C0F83B
:101B90000E10C0F81210C0F81610083880F8241083
:101BA00080F82510C1844FF4FA60FFF79FF910B157
:101BB0004FF0FF303EE70220FFF759F910B14FF028
:101BC000FF3037E72A20FEF795FE10B14FF0FF30C7
:101BD00030E73220FEF7ADFF10B14FF0FF3029E7BC
:101BE0000020FEF7C6FE10B14FF0FF3022E70020C4
:101BF000FEF7EBFF10B14FF0FF301BE70020FFF7BF
:101C0000CEF8002016E77CB504460D46A748807A3A
:101C100010F0700F02D14FF0FF307CBDA34A126864
:101C2000117BA24A526810786B46062201F05DFDD6
:101C300010B14FF0FF30F0E79DF801009DF8001063
:101C400040EA012000B220809DF803009DF80210B8
:101C500040EA012000B260809DF805009DF8041064
:101C600040EA012000B2A08015B12846FFF78BFEA4
:101C70000020D2E77CB504460D468C48807A10F0EF
:101C8000080F02D14FF0FF307CBD884A1268517BAB
:101C9000864A526810786B46062201F026FD10B184
:101CA0004FF0FF30F0E79DF801009DF8001040EA8A
:101CB000012000B220809DF803009DF8021040EA48
:101CC000012000B260809DF805009DF8041040EAF4
:101CD000012000B2A08015B12846FFF754FE002075
:101CE000D2E72DE9FE4F05460C467048807A18B9B8
:101CF0004FF0FF30BDE8FE8F6C4A1268917B6B4A53
:101D00005268107802AB022201F0EFFC10B14FF0E4
:101D1000FF30EFE79DF809009DF8081040EA012028
:101D200006B214B12046FFF72EFE60494968C88804
:101D300003F0FCFC5D4901904968B1F9080003F02B
:101D4000ECFC8346304603F0E8FC5946009003F073
:101D5000E3FA8246019903F01BFB8146674903F0D1
:101D600089FA80464FF08F4103F0DCFA074603F012
:101D7000E2FC28600020BDE710B588B004461CB91D
:101D80004FF0FF3008B010BD206828B9606818B95E
:101D9000A06808B90020F5E744494968087806AB0F
:101DA0000322114601F0A1FC10B14FF0FF30E9E72A
:101DB0009DF81800082101EB201000F00F00ADF88D
:101DC00000009DF8190001EB201000F00F00ADF8A5
:101DD00002009DF81A0001EB201000F00F00ADF892
:101DE000040020684100BDF90000403091FBF0F094
:101DF00000B2ADF8100060684100BDF9020040304B
:101E000091FBF0F000B2ADF81200A0684100BDF9FE
:101E10000400403091FBF0F000B2ADF8140023490B
:101E20004968087806AB0622114601F05EFC10B145
:101E30004FF0FF30A6E79DF819009DF8181040EA12
:101E4000012000B2ADF808009DF81B009DF81A10A3
:101E500040EA012000B2ADF80A009DF81D009DF88F
:101E60001C1040EA012000B2ADF80C00BDF81000D3
:101E7000BDF80810084400B2ADF81000BDF812001B
:101E8000BDF80A10084400B2ADF81200BDF8140005
:101E9000BDF80C10084400B2ADF81400BDF81000F5
:101EA000000A8DF81800BDF8100029E00400002099
:101EB000556E737570706F7274656420736F66749D
:101EC000776172652070726F6475637420726576D5
:101ED0002025642E0A0000004472000848616C66E8
:101EE0002073656E736974697669747920706172A4
:101EF0007420666F756E642E0A00000000000C42AC
:101F0000C0B28DF81900BDF81200000A8DF81A0051
:101F1000BDF81200C0B28DF81B00BDF81400000A15
:101F20008DF81C00BDF81400C0B28DF81D00FF49EB
:101F30004968087806AB0622114601F087FB10B10C
:101F40004FF0FF301EE700201CE70146002008800C
:101F5000401E704701464FF0FF3070470146F3487E
:101F6000807A10B10120087001E000200870002084
:101F7000704738B50446ED48807A10B94FF0FF300D
:101F800038BDEA4A1268117CE84A526810786B46FC
:101F9000022201F0AAFB10B14FF0FF30F0E79DF8EC
:101FA00001009DF8001040EA012000B220800020CE
:101FB000E6E72DE9FE4F8046894692461D46DDF84C
:101FC00030B000260024D94890F8240010B1601EDB
:101FD000BDE8FE8F00202870D448807A10B94FF0F9
:101FE000FF30F5E7D148007C10B94FF0FF30EFE744
:101FF000CE48007C10F0400F01D0B01CC6B2CB48D8
:10200000007C10F0200F01D0B01CC6B2C748007C85
:1020100010F0100F01D0B01CC6B2C448007C10F004
:10202000080F01D0B01DC6B2C04A1268917ABF4AEB
:10203000526810786B46022201F057FB10B14FF046
:10204000FF30C5E79DF801009DF8001040EA012728
:10205000B74201DA0020BBE7B44840684088B7EBDC
:10206000600F17DDB14A1268517CB04A526810788F
:102070006B46012201F039FB10B14FF0FF30A7E7AA
:102080009DF8000010F0100F04D0FEF70DFB6FF06C
:1020900001009DE75046FFF776FCA44A1268D17A0A
:1020A000A24A526810786B46324601F01EFB10B10E
:1020B0004FF0FF308CE797FBF6F0401E8BF80000E6
:1020C00000202870B4422AD09848007C10F0080FF5
:1020D00025D0601C1DF800001DF8041040EA012006
:1020E00000B2A9F80000E01C1DF80010A01C1DF8AB
:1020F000000041EA002000B2A9F80200601D1DF8AE
:102100000010201D1DF8000041EA002000B2A9F8CF
:102110000400287840F008002870A01D84B2B44262
:1021200014D08248007C10F0400F0FD0601C1DF8C6
:1021300000001DF8041040EA012000B2A8F80000D9
:10214000287840F040002870A01C84B2B44214D01B
:102150007648007C10F0200F0FD0601C1DF80000A6
:102160001DF8041040EA012000B2A8F80200287807
:1021700040F020002870A01C84B2B44214D06B48F8
:10218000007C10F0100F0FD0601C1DF800001DF82F
:10219000041040EA012000B2A8F80400287840F0BA
:1021A00010002870A01C84B2002011E7F8B5054685
:1021B0000F4616465D4890F8240010B94FF0FF30E6
:1021C000F8BD5A48807A10B94FF0FF30F8E7574A07
:1021D0001268917A554A526810786B46022201F0D3
:1021E00084FA10B14FF0FF30EAE79DF801009DF846
:1021F000001040EA0124AC4203DA00203070401E97
:10220000DEE74A4840684088B4EB600F17DD474A74
:102210001268517C454A526810786B46012201F0E1
:1022200064FA10B14FF0FF30CAE79DF8000010F0DB
:10223000100F04D0FEF738FA6FF00100C0E73B4AF8
:102240001268D17A394A526810783B46EAB201F0F6
:102250004CFA10B14FF0FF30B2E794FBF5F0401E9E
:1022600030700020ACE70146304880F82210002092
:102270007047F8B504460D46164616B94FF0FF30C4
:10228000F8BD2A48807A10B94FF0FF30F8E72012E5
:102290008DF80000E0B28DF801009DF8010028449F
:1022A000224949684989884202DD4FF0FF30E7E75B
:1022B0001E4A1268117E1D4A526810786B4602222F
:1022C00001F0C4F910B14FF0FF30D9E7174A126896
:1022D000517D164A526810783346EAB201F0B6F9D9
:1022E00010B14FF0FF30CBE70020C9E7F8B5044646
:1022F0000D46164616B94FF0FF30F8BD0B48807AF0
:1023000010B94FF0FF30F8E720128DF80000E0B26E
:102310008DF801009DF80100284404494968498965
:10232000884205DD4FF0FF30E7E7000004000020A1
:10233000C34A1268117EC24A526810786B46022264
:1023400001F084F910B14FF0FF30D6E7BC4A1268B3
:10235000517DBB4A526810783346EAB201F0C5F9A4
:1023600010B14FF0FF30C8E70020C6E72DE9F04379
:1023700085B005460E4690469946B14890F825002E
:1023800020B14FF0FF3005B0BDE8F08316B94FF033
:10239000FF30F8E7002423E0281B102801DD10207F
:1023A00000E0281B87B2321939462046FFF761FF4B
:1023B00010B14FF0FF30E6E701AA39462046FFF79B
:1023C00095FF10B14FF0FF30DDE730193A4601A913
:1023D00002F043FF10B16FF00100D4E7E01984B2BE
:1023E000AC42D9DB4FEA28208DF8000008F0FF004E
:1023F0008DF80100924A1268917E914A52681078D5
:102400006B46022201F022F910B14FF0FF30BAE71B
:1024100001218B4880F82510A0F826900020B2E713
:102420000146874890F82400087000207047024653
:102430004FF0FF30704701464FF0FF307047F8B55E
:1024400005460F461446F4B3B5F5FF5F01DDFF26E0
:1024500005E0202D01DA012601E0C5F3471607B992
:102460000127282C02DD4FF0FF30F8BD7448407D75
:1024700028BB734890F8240038B10020FEF74AFCCE
:1024800001216F4880F8201003E000216C4880F89B
:1024900020106B481630FFF742F969481830FFF7F3
:1024A0001AF967481A30FFF7F1F865481C30FFF752
:1024B000E0F86348817A81771F30FFF7D4F8002075
:1024C000FEF7D3F900E07AE00020FEF7C5FA00201D
:1024D0008DF800005A4A12689178594A526810786B
:1024E0006B46012201F0B2F810B14FF0FF30BCE7AB
:1024F00040208DF80000524A1268D17B504A526841
:1025000010786B46012201F0A1F800B164E08DF86B
:1025100000608DF801704A4A1268117A484A526880
:1025200010786B46022201F091F800B154E00520CA
:10253000FDF7EFFE4248407A072101EBC000C0B230
:102540008DF800003E4A1268D1793D4A52681078F1
:102550006B46012201F07AF800B13DE020208DF8B1
:102560000000012C03D100208DF801000EE0052CA5
:1025700003DC01208DF8010008E0142C03DC0220AC
:102580008DF8010002E003208DF801009DF80100A4
:10259000072101EB8010C0B28DF80100284A1268B3
:1025A000917C274A526810786B46022201F04EF85F
:1025B00000B111E0012122484175002055E7204A71
:1025C0001632002103E0505C00B105E0491C0C29E3
:1025D000F9D34FF0FF3048E7FF2019490872FF2177
:1025E00017484172C1724FF6FF71C181FF2181729C
:1025F0000174012101730146887FFEF7D0FB104969
:10260000C88AFEF773FC0E49087EFEF730FC0C49C1
:10261000488BFEF76FF90A49888BFEF78AFA08495A
:10262000C87FFEF7A6F9064890F8200010B10120F7
:10263000FEF770FB002102484175002015E70000FD
:102640000400002010B5C8234FF48062FB4940F617
:10265000F630FFF78BFE10BD10B586B00446F8A02B
:1026600000680390F7A000680290F7A0006801904E
:10267000F6A00068009004F0030003A9085C8DF840
:10268000140003A8C4F3C101405C8DF8150003A831
:10269000C4F38111405C8DF8160004F0030002A918
:1026A000085C8DF8100002A8C4F3C101405C8DF8ED
:1026B000110002A8C4F38111405C8DF8120005AA34
:1026C000032140F22640FFF7D4FD18B14FF0FF3050
:1026D00006B010BD04AA032140F22A40FFF7C9FD4D
:1026E00010B14FF0FF30F3E7019805900098049087
:1026F00014F0040F0BD09DF8140040F001008DF889
:1027000014009DF8100040F001008DF8100014F046
:10271000200F0BD09DF8150040F001008DF815003A
:102720009DF8110040F001008DF8110014F4807F35
:102730000BD09DF8160040F001008DF816009DF8B2
:10274000120040F001008DF8120005AA03214FF499
:102750008860FFF78EFD10B14FF0FF30B8E704AA94
:10276000032140F23140FFF784FD10B14FF0FF30FC
:10277000AEE7B74804810020AAE72DE9FF470446E9
:10278000B348008900F0030054F820000190B048DD
:10279000008910F0040F02D0019840420190AC482B
:1027A0000089C0F3C10054F820000290A8480089B5
:1027B00010F0200F02D0029840420290A4480089F5
:1027C000C0F3811054F820000390A148008910F450
:1027D000807F02D00398404203909E49019880FB7D
:1027E000015A1E222846514602F012FD01909949D5
:1027F000029880FB01671E223046394602F008FD30
:1028000002909449039880FB01891E224046494664
:1028100002F0FEFC03900198000E8DF80000019874
:10282000000C8DF801000198000A8DF80200019853
:10283000C0B28DF803006A4604214FF47470FFF7AC
:1028400018FD20B14FF0FF3004B0BDE8F0870298CA
:10285000000E8DF800000298000C8DF8010002981F
:10286000000A8DF802000298C0B28DF803006A4693
:1028700004214FF47570FFF7FCFC10B14FF0FF30EE
:10288000E2E70398000E8DF800000398000C8DF825
:1028900001000398000A8DF802000398C0B28DF879
:1028A00003006A4604214FF47670FFF7E2FCCBE7A1
:1028B0002DE9F04F8BB0074601A8FDF7B1FEBDF83A
:1028C000046000200F2208903046089902F091FC25
:1028D00004460D465E48008900F0030057F82000CA
:1028E00005905B48008910F0040F02D00598404223
:1028F000059057480089C0F3C10057F820000690A2
:102900005348008910F0200F02D0069840420690EC
:102910004F480089C0F3811057F8200007904C48B9
:10292000008910F4807F02D00798404207900598F4
:10293000C117A0FB048201FB042100FB05101E222D
:102940000A9040460A9902F063FC05900698C11768
:10295000A0FB049201FB042100FB051A1E2248463D
:10296000514602F055FC06900798C117A0FB04B22F
:1029700001FB042100FB05101E220990584609990D
:1029800002F046FC07900598000E8DF808000598A7
:10299000000C8DF809000598000A8DF80A000598CA
:1029A000C0B28DF80B000698000E8DF80C0006984A
:1029B000000C8DF80D000698000A8DF80E000698A0
:1029C000C0B28DF80F000798000E8DF81000079820
:1029D000000C8DF811000798000A8DF81200079876
:1029E000C0B28DF8130002AA0C214FF42570FFF736
:1029F00040FC0BB0BDE8F08F30B585B0044616A2A0
:102A000007CA02AB07C3C82C03DD4FF0FF3005B087
:102A100030BDC82090FBF4F0401E85B2280A8DF826
:102A20000000E8B28DF801006A46022140F216204B
:102A3000FFF71FFCB0B14FF0FF30E8E791720008DC
:102A40004CCD6C000CC92C0036567600264666002C
:102A5000DC00002009E3CA02FEF2ABC4AAF1DFDF0A
:102A6000BBAFDFDF02AA0C2140F6C120FFF701FC5B
:102A700010B14FF0FF30CAE7FE4884810020C6E75E
:102A80000146FC4880890880002070472DE9FC47FA
:102A900006460F4616F0070F02D0B7F5C86F03DDE4
:102AA0004FF0FF30BDE8FC87384602F03FFE81461C
:102AB000F14902F06DFC80466846FEF70CFE9DF879
:102AC0000000022806D0042816D0082826D0102896
:102AD00048D135E04FF08D41404602F023FC81465D
:102AE00002F042FE84B2E549404602F01BFC8146FA
:102AF00002F03AFE85B238E04FF08C41404602F0D9
:102B000011FC814602F030FE84B2DD49404602F0FD
:102B100009FC814602F028FE85B226E04FF08B4189
:102B2000404602F0FFFB814602F01EFE84B2D5490A
:102B3000404602F0F7FB814602F016FE85B214E033
:102B40004FF08A41404602F0EDFB814602F00CFE58
:102B500084B2CD49404602F0E5FB814602F004FE16
:102B600085B202E04FF0FF309CE700BF20128DF8E5
:102B70000400E0B28DF8050028128DF80600E8B2D6
:102B80008DF8070016F0010F14D001AA02214FF4AE
:102B9000EA70FFF76EFB10B14FF0FF3082E70DF1E6
:102BA000060202214FF49270FFF763FB10B14FF061
:102BB000FF3077E716F0020F14D001AA02214FF47C
:102BC000EC70FFF756FB10B14FF0FF306AE70DF1E4
:102BD000060202214FF49470FFF74BFB10B14FF047
:102BE000FF305FE716F0040F14D001AA02214FF462
:102BF000EE70FFF73EFB10B14FF0FF3052E70DF1E2
:102C0000060202214FF49670FFF733FB10B14FF02C
:102C1000FF3047E7002045E738B504460020009024
:102C200014F0010F04D09DF8000040F03000009037
:102C300014F0020F04D09DF8000040F00C0000904A
:102C400014F0040F04D09DF8000040F00300009041
:102C50006A4601214FF4A470FFF70BFB38BD38B56D
:102C60000446012C01DA012402E0042C00DD0424D6
:102C7000601EC0B200906A46012140F24F10FFF77B
:102C8000F8FA38BD38B50446052094FBF0F085B25B
:102C900028128DF80000E8B28DF801006A46022182
:102CA0004FF4EF70FFF7E5FA38BD38B5044605205C
:102CB00094FBF0F085B228128DF80000E8B28DF890
:102CC00001006A4602214FF4ED70FFF7D2FA38BDD9
:102CD000F8B505460E464FF47A7095FBF0F000FB10
:102CE00006F4200E8DF80000200C8DF80100200A5B
:102CF0008DF80200E0B28DF803006A4604214FF41B
:102D0000AE70FFF7B6FAF8BD38B50446052094FB5F
:102D1000F0F084B220128DF80000E0B28DF80100CE
:102D20006A4602214FF4AD70FFF7A3FA38BD38B5FB
:102D30000446052094FBF0F084B220128DF80000C8
:102D4000E0B28DF801006A4602214FF4AC70FFF743
:102D500090FA38BD38B5044614B94FF0FF3038BD8D
:102D60006A4604214FF45870FFF7C0FA10B14FF0D3
:102D7000FF30F4E79DF8000000069DF8011040EADE
:102D800001409DF8021040EA01209DF8031008431D
:102D900020600020E3E738B50446200E8DF80000DF
:102DA000200C8DF80100200A8DF80200E0B28DF8A9
:102DB00003006A4604214FF45870FFF75AFA38BDF1
:102DC00038B5044614B94FF0FF3038BD6A460421C7
:102DD0004FF47170FFF78AFA10B14FF0FF30F4E74B
:102DE0009DF8000000069DF8011040EA01409DF8A2
:102DF000021040EA01209DF80310084300EB800018
:102E0000800020600020E0E738B504461420B4FBC1
:102E1000F0F4200E8DF80000200C8DF80100200A3F
:102E20008DF80200E0B28DF803006A4604214FF4E9
:102E30007170FFF71EFA38BD38B5044664B1202022
:102E40008DF8000028208DF8010030208DF8020058
:102E500038208DF8030004E0A3220421684602F024
:102E6000E9F96A46042140F69E20FFF702FAFDF7D1
:102E70001BFC38BDDC000020000048430000404639
:102E80000000C045000040450000C04438B504467D
:102E900064B1C0208DF80000C2208DF80100C4206C
:102EA0008DF80200C6208DF8030004E08B22042177
:102EB000684602F0BFF96A46042140F69820FFF701
:102EC000D8F9FDF7F1FB38BD3EB504466CB1FCA165
:102ED000D1E900208968CDE9002002916A460921E4
:102EE0004FF49760FFF7C5F93EBDF8A2D2E9001094
:102EF0009268CDE9010200916A4609214FF497607A
:102F0000FFF7B7F9F0E73EB5044602208DF8000060
:102F1000CA208DF80100E3208DF8020009208DF809
:102F200003006A4604216820FFF7A3F9A3208DF867
:102F3000000014F0400F09D0C0208DF80100C82017
:102F40008DF80200C2208DF8030006E0A3208DF862
:102F500001008DF802008DF8030014F4C07F09D041
:102F6000C4208DF80400CC208DF80500C6208DF813
:102F7000060006E0A3208DF804008DF805008DF80A
:102F80000600A3208DF807008DF808008DF80900D1
:102F90006A460A2140F6A720FFF76BF914F0030FE9
:102FA00003D020208DF8000002E0D8208DF800002A
:102FB0006A46012140F6B620FFF75BF914F0200FB6
:102FC00003D00120FFF780FF02E00020FFF77CFF25
:102FD00014F4C07F21D014F4807F0CD0B2208DF87F
:102FE00000008B208DF80100B6208DF802009B2098
:102FF0008DF803000BE0B0208DF8000080208DF8E4
:103000000100B4208DF8020090208DF803006A467C
:10301000042140F6A220FFF72CF914F0010F24D070
:10302000F8208DF800006A4601214FF40B60FFF78D
:1030300020F9FA210720FFF729FD0720FFF7ECFD13
:103040000120FFF70CFE6420FFF71CFE4FF4FA701E
:10305000FFF72BFEC821A048FFF73AFE2820FFF714
:1030600053FE0A20FFF763FE08E0D8208DF8000029
:103070006A4601214FF40B60FFF7FBF814F0020FD2
:1030800003D0D9208DF8000002E0D8208DF8000090
:103090006A46012140F23D70FFF7EBF814F0040F8F
:1030A00003D00120FFF7F2FE02E00020FFF7EEFE62
:1030B00014F0100F03D00120FFF7BEFE02E0002045
:1030C000FFF7BAFE44F0080084494881FDF7ECFAA6
:1030D00000208249887314F0400F03D00846807B9B
:1030E000801D887314F4C07F04D07C48807B801DD1
:1030F0007A49887314F0140F04D07848807B10301C
:103100007649887314F0030F04D07448807B001D47
:103110007249887300203EBD01467048408908808E
:10312000002070472DE9F0410446E07800F0C00629
:10313000E07800F03F05607810F0010F13D0EF1039
:103140002846E91705EB5171C910A5EBC101491CCF
:1031500001F0FF086148006820B1604841460268FC
:103160003846904700BF607810F0080F06D05B48E3
:10317000406818B1B011594A516888470020BDE82D
:10318000F08110B586B0044655A207CA03AB07C349
:1031900056A207CA8DE80700012C09D0022C0ED1D7
:1031A00003AA0B2140F68220FFF763F806B010BD9A
:1031B0006A460B2140F68220FFF75BF8F6E74FF0F6
:1031C000FF30F3E72DE9F04F8DB0074688461546EE
:1031D0009946DDE9166B0024002030803F49887B4A
:1031E0005A4605A9FEF7E2FF18B1601E0DB0BDE812
:1031F000F08F3A48408910F0140F7DD09DF81400EC
:1032000000069DF8151040EA01409DF8161040EAAE
:1032100001209DF81710084328609DF8180000064B
:103220009DF8191040EA01409DF81A1040EA01206B
:103230009DF81B10084368609DF81C0000069DF86F
:103240001D1040EA01409DF81E1040EA01209DF843
:103250001F100843A8609DF8200000069DF821106B
:1032600040EA01409DF8221040EA01209DF8231019
:103270000843E86004F11000C4B22868001401900B
:10328000686800140290A86800140390E8680014AD
:10329000049001984043029901FB0100039901FB4E
:1032A0000100049901FB010ABAF1706F02DBBAF167
:1032B000885F22DDFDF7F8F900203080401E95E799
:1032C000B8AAB38DB4980D355D000000B8AAAAAABB
:1032D000B088C3C5C700000009E3CA02DC000020B3
:1032E000D8B1B9F38BA391B609B4D900DAB1B9F367
:1032F0008BA391B6DAB4DA0005E0B6F9000040F429
:103300008070308000BF3448408910F0400F24D0D6
:1033100005A9601C085C095D40EA012000B2A8F81C
:10332000000005A9E01C095C05AAA01C105C41EA8C
:10333000002000B2A8F8020005A9601D095C201D4C
:10334000105C41EA002000B2A8F80400A01DC4B23D
:10335000B6F9000040F0080030801F48408910F4A2
:10336000C07F21D005A9601C085C095D40EA0120EE
:1033700000B2388005A9E01C095C05AAA01C105CFD
:1033800041EA002000B2788005A9601D095C201D7B
:10339000105C41EA002000B2B880A01DC4B2B6F9AA
:1033A000000040F0700030800B48408910F0030F9F
:1033B00003D005A90819FFF7B5FE4846FEF7E3FA62
:1033C000002013E7014604480160002070470146D1
:1033D0000148416000207047DC000020072000E029
:1033E000401E0028FCD1704710B58021DB4801F059
:1033F000FAF84021D94801F0F6F8FFF7EFFF8021F5
:10340000D64801F0D6F808B9002010BD8021D34875
:1034100001F0EBF8FFF7E2FF8021D04801F0C9F896
:1034200008B10020F1E78021CC4801F0DEF8FFF779
:10343000D5FF0120E9E710B54021C84801F0D5F8D3
:10344000FFF7CCFF8021C54801F0CFF8FFF7C6FF9A
:103450004021C24801F0C7F8FFF7C0FF8021BF48F4
:1034600001F0C1F8FFF7BAFF10BD10B54021BB480D
:1034700001F0BBF8FFF7B2FF8021B84801F0B5F8C2
:10348000FFF7ACFF4021B54801F0ADF8FFF7A6FF0C
:103490004021B24801F0A9F8FFF7A0FF10BD10B518
:1034A0004021AE4801F0A1F8FFF798FF8021AB481A
:1034B00001F099F8FFF792FF4021A84801F093F836
:1034C000FFF78CFF4021A54801F08FF8FFF786FF3A
:1034D00010BD10B54021A14801F087F8FFF77EFF2D
:1034E00080219E4801F07FF8FFF778FF40219B483C
:1034F00001F079F8FFF772FF8021984801F059F840
:1035000028B14021954801F070F8002010BD4021FD
:10351000924801F06AF80120F8E770B504460825E2
:103520001BE040218D4801F060F8FFF757FF14F0D1
:10353000800F04D08021894801F055F803E08021F4
:10354000864801F052F86006040EFFF747FF40215D
:10355000824801F048F8FFF741FF2800A5F101017A
:10356000CDB2DED140217D4801F03FF870BD70B58D
:10357000082500248021794801F035F814E0600620
:10358000040E4021754801F030F8FFF727FF402175
:10359000724801F028F8FFF721FF80216F4801F001
:1035A00008F808B144F001042800A5F10101CDB2EA
:1035B000E5D14021694801F018F8204670BD6848FF
:1035C000806940F00800664988616448006820F01E
:1035D0007F406449C1F8000C0846D0F8000C60F048
:1035E0002A40C1F8000C70472DE9F04105460E460F
:1035F00017469846FFF7F8FE10B90020BDE8F081A5
:10360000002141EA4501C8B2FFF787FFFFF761FFDC
:1036100018B9FFF710FF0020F0E73046FFF77DFFF5
:10362000FFF757FF00240BE018F80400FFF775FFC1
:10363000FFF74FFF18B9FFF7FEFE0020DEE7641C1E
:10364000BC42F1DBFFF7F7FE0120D7E72DE9F0419F
:1036500004460D4616461F463B463246294620463E
:10366000FFF7C2FF10B10020BDE8F0814FF0FF303E
:10367000FAE72DE9F04105460F4614461E46FFF7CE
:10368000B3FE10B90020BDE8F081002141EA4501F8
:10369000C8B2FFF742FFFFF71CFF18B9FFF7CBFED8
:1036A0000020F0E73846FFF738FFFFF712FFFFF77B
:1036B0009BFE012101EB4501C8B2FFF72EFFFFF78A
:1036C00008FF0CE0FFF753FF3070012C02D1FFF729
:1036D000E6FE01E0FFF7C9FE761C601EC4B2002CB6
:1036E000F0D1FFF7A8FE0120CDE72DE9F041044617
:1036F0000D4616461F463B46324629462046FFF7F2
:10370000B8FF10B10020BDE8F0814FF0FF30FAE7BC
:1037100070B504460D461646FFF766FE08B9002050
:1037200070BD002141EA4401C8B2FFF7F6FEFFF781
:10373000D0FE18B9FFF77FFE0020F1E72846FFF71B
:10374000ECFEFFF7C6FE3046FFF7E7FEFFF7C1FECF
:10375000FFF771FE0120E3E700207047000C0140F5
:10376000001002400000014008B50121102001F0C6
:1037700042F93820ADF8000010208DF80300032036
:103780008DF802006946204800F082FE38211E486C
:1037900000F029FF08BD10B50446012C0FD1082107
:1037A000194800F013FF012804D10821164800F041
:1037B0001CFF27E00821144800F015FF22E0022C2E
:1037C0000FD11021104800F001FF012804D1102171
:1037D0000D4800F00AFF15E010210B4800F003FF30
:1037E00010E0032C0ED12021074800F0EFFE012845
:1037F00004D12021044800F0F8FE03E02021024813
:1038000000F0F1FE10BD0000001001400120FF4952
:10381000086070470020FD49086070472DE9F041BD
:10382000FB48006801F0B4FF0446FA4AFA4B01F085
:10383000EFFD064601F0C2FFF5490860BDE8F081E2
:103840002DE9F041F548006801F0A2FF0446F14A75
:10385000F14B01F0DDFD064601F0B0FFEF490860D5
:10386000BDE8F0812DE9F041ED48006801F090FFDE
:103870000446E84AE84B01F0CBFD064601F09EFF06
:10388000E7490860BDE8F0814FF07F50E0490860EB
:10389000E448E2490860E448E149086070472DE9DE
:1038A000F041E248006801F073FF0446D94ADA4B60
:1038B00001F0AEFD064601F081FFDC490860BDE87D
:1038C000F0812DE9F041DA48006801F061FF04461B
:1038D000D04AD14B01F09CFD064601F06FFFD44960
:1038E0000860BDE8F081D348D0490860D248D0498B
:1038F000086070472DE9F0470446D0480168D04879
:10390000006801F00FFD0646CE480168CE48006809
:1039100001F008FD0746314601F0FEFC05464FF078
:10392000804101F0FFFC2060C6480168C348006880
:1039300001F0F8FC0646C4480168C148006801F07F
:10394000F1FC0746314601F095FC05464FF08041F9
:1039500001F0E8FC6060BB480168006801F0E2FC2F
:103960000746B6480168006801F0DCFC8046B648AE
:103970000168006801F0D6FC8146B1480168006822
:1039800001F0D0FC8246494601F0C6FC064641469D
:1039900001F0C2FC0546394601F06CFCA060002035
:1039A000BDE8F0872DE9F04F89B0A84BA84ACDE9D2
:1039B0000023A84BA84AA949A948FFF703FCA4483B
:1039C000008810F4807F64D0A349086801F0A5FE48
:1039D00004464FF09D4101F0DBFC994908609E4987
:1039E000486801F09AFE04464FF09D4101F0D0FC7A
:1039F000954908609849886801F08FFE04464FF0A9
:103A00009D4101F0C5FC8D4908609349C86801F0EB
:103A100084FE04464FF09D4101F0BAFC89490860DC
:103A20009048FFF767FF8F49886801F0B1FE0446B0
:103A300000224FF0804302F0CBFECDE9040189491A
:103A4000486801F0A5FE044600224FF0804302F0D2
:103A5000BFFE06460F468349086801F099FE0446FA
:103A600000224FF0804302F0B3FE804632463B46D0
:103A700001F0CEFCCDE90201DDE9042301F0C8FC30
:103A8000824603F091FBCDE9060101F097FE7649ED
:103A900008606F48008810F0080F32D06F49B1F904
:103AA000000001F03AFE0546704901F071FC044641
:103AB0006C480168204601F0DDFB6D4908606749EC
:103AC000B1F9020001F029FE0546684901F060FCE9
:103AD000044664484168204601F0CCFB64494860D4
:103AE0005E49B1F9040001F018FE05465F4901F096
:103AF0004FFC04465B488168204601F00DFC5C49A0
:103B000088605B49886801F043FE044600224FF05C
:103B1000804302F05DFE82468B465549486801F0BD
:103B200037FE044600224FF0804302F051FE064665
:103B30000F464F49086801F02BFE044600224FF063
:103B4000804302F045FE804632463B4601F060FC71
:103B500052465B46CDE9000101F05AFCCDE9020175
:103B600003F022FB2B4A434BCDE9040101F0F5FCA5
:103B7000CDE9060101F022FE3F49086008460068D1
:103B800009B0BDE8F08F2DE9F04F85B02F4B304ADA
:103B9000CDE900232F4B304A30493148FFF712FB63
:103BA0002B48008810F4807F2FD02B49086801F043
:103BB000B4FD04464FF09D4101F0EAFB2049086046
:103BC0002549486801F0A9FD04464FF09D4101F0E8
:103BD000DFFB1D4908602049886801F09EFD04460E
:103BE0004FF09D4101F0D4FB144908601A49C868A0
:103BF00001F093FD04464FF09D4101F0C9FB1149CE
:103C0000086008460168006838E069E03C00002070
:103C1000400000209A9999999999B93F4400002051
:103C2000480000209A997940000090404C00002004
:103C3000500000200000A0410000F0416000002082
:103C400058000020640000205C0000208600002056
:103C50008400002074000020200100207E0000204D
:103C60007800002048010020A800002000707F4656
:103C70003001002099992340A000002001F052FB60
:103C8000049097480168006801F04CFB0390954848
:103C90000168006801F046FB0190934801680068E4
:103CA00001F040FB0090019901F036FB029003996E
:103CB00001F032FB8346049901F0DCFA824601F000
:103CC00067FD064602F042FC04460022874B01F0E5
:103CD00044FC8046864A874B01F0B0FC864A03C20A
:103CE000854903C901F06AFD05B0BDE8F08F70B5E4
:103CF000FDF78FFE0446C4BB80A001F037FF78209B
:103D0000FDF74DF818B986A001F030FF02E08CA055
:103D100001F02CFF7820FCF72CFE18B993A001F0DD
:103D200025FF02E09AA001F021FF6420FCF701FFCB
:103D300018B9A3A001F01AFF02E0ABA001F016FF32
:103D4000FEF780FC18B9B1A001F010FF02E0BCA0A2
:103D500001F00CFFC948FDF702FE0546FEF77CFCAA
:103D600020B9C7A001F002FF03E028E0CEA001F0D7
:103D7000FDFE40F27310FFF7C6F818B9D6A001F0A7
:103D8000F5FE02E0DDA001F0F1FE6420FEF734FE56
:103D900018B9E6A001F0EAFE02E0EDA001F0E6FEAF
:103DA000FDF768FD0120FCF7B5FF18B9F3A001F09D
:103DB000DDFE02E0FAA001F0D9FE002070BD012076
:103DC000FCE7DFE200BF03E0FFF7ECFDFF4908601E
:103DD000FF4800680028F7D1FFF7E4FDFB490860C1
:103DE000FC480168F948006801F00EFD72D8FA48F5
:103DF0000078012101EB400040B2F7490870F74814
:103E00000168F248006801F0FFFC64D8F4480168DA
:103E1000EE48006801F0F8FC1DD80025002417E0EA
:103E2000FFF7B1FEEF490860EF480168ED48006810
:103E300001F0EAFC0BD2641C022C08DB0320FFF724
:103E4000AAFCFFF7E3FCE9A001F090FEBBE76D1CC4
:103E5000052D41DAE4E7DD480768E248D0F8008044
:103E60000026D9E1FFF79EFDD8490860FFF78BFED9
:103E7000DC4908604146DB48006801F04DFA8146A4
:103E80003946D248006801F0BFFC0BD3D84801681E
:103E9000D448006801F0B8FC04D3D649484601F084
:103EA000B3FC1AD2CE480168C848006801F0ACFCE7
:103EB00013D200250024ABE1FFF765FEC949086075
:103EC000C9480168C748006801F09EFC06D2641C1E
:103ED000022C91E136E2A3E133E29CE197E100009C
:103EE000600000205C000020580000200080664038
:103EF0004AD8124DFB210940980000206D707520B2
:103F0000696E697469616C697A6174696F6E206346
:103F10006F6D706C6574652E2E2E2E2E2E0A20006D
:103F20006D70755F7365745F73656E736F72206318
:103F30006F6D706C657465202E2E2E2E2E2E0A004D
:103F40006D70755F7365745F73656E736F722063F8
:103F50006F6D65206163726F7373206572726F722B
:103F6000202E2E2E2E2E2E0A000000006D70755F62
:103F7000636F6E6669677572655F6669666F2063F9
:103F80006F6D706C657465202E2E2E2E2E2E0A00FD
:103F90006D70755F636F6E6669677572655F666980
:103FA000666F20636F6D65206163726F7373206548
:103FB00072726F72202E2E2E2E2E2E0A00000000FE
:103FC0006D70755F7365745F73616D706C655F7242
:103FD00061746520636F6D706C657465202E2E2E84
:103FE0002E2E2E0A000000006D70755F7365745FE1
:103FF00073616D706C655F72617465206572726F5C
:1040000072202E2E2E2E2E2E0A000000646D705F60
:104010006C6F61645F6D6F74696F6E5F64726976F7
:1040200065725F6669726D7761726520636F6D702E
:104030006C657465202E2E2E2E2E2E0A0000000098
:10404000646D705F6C6F61645F6D6F74696F6E5FDC
:104050006472697665725F6669726D7761726520F8
:10406000636F6D65206163726F7373206572726F29
:1040700072202E2E2E2E2E2E0A0000003000002040
:10408000646D705F7365745F6F7269656E7461747F
:10409000696F6E20636F6D706C657465202E2E2EB7
:1040A0002E2E2E0A00000000646D705F7365745F31
:1040B0006F7269656E746174696F6E20636F6D6590
:1040C000206163726F7373206572726F72202E2E7F
:1040D0002E2E2E2E0A000000646D705F656E6162E8
:1040E0006C655F6665617475726520636F6D706C79
:1040F000657465202E2E2E2E2E2E0A00646D705FA4
:10410000656E61626C655F6665617475726520637A
:104110006F6D65206163726F7373206572726F7269
:10412000202E2E2E2E2E2E0A00000000646D705FB1
:104130007365745F6669666F5F7261746520636F33
:104140006D706C657465202E2E2E2E2E2E0A0000AA
:10415000646D705F7365745F6669666F5F726174CA
:104160006520636F6D65206163726F737320657284
:10417000726F72202E2E2E2E2E2E0A006D70755FFD
:104180007365745F646D705F737461746520636FD1
:104190006D706C657465202E2E2E2E2E2E0A00005A
:1041A0006D70755F7365745F646D705F7374617457
:1041B0006520636F6D65206163726F737320657234
:1041C000726F72202E2E2E2E2E2E0A00A00000209E
:1041D0003C0000204000002054000020440000204B
:1041E00048000020A4000020500000203100000002
:1041F0004C0000200000204109DB0320FFF7CBFA30
:10420000FFF704FBAFF21C0001F0B0FCDBE56D1C16
:10421000052DFFF651AE761C142EFFF623AEB1E04D
:10422000594807685948D0F80080002686E0FFF713
:10423000B9FB55490860FFF7A6FC544908604146A0
:104240005248006801F068F8814639464E480068D7
:1042500001F0DAFA12D34E4801684B48006801F0C9
:10426000D3FA0BD34B4801684848006801F0CCFAF8
:1042700004D34949484601F0C7FA5ED2474801686D
:104280004148006801F0C0FA1ED80025002418E05B
:10429000FFF779FC3D490860414801683B480068E8
:1042A00001F0B2FA0CD2641C022C09DB0320FFF7E8
:1042B00072FAFFF7ABFAAFF2CC0001F057FC82E5DF
:1042C0006D1C052DE4DB38E03648007810F0010F56
:1042D0002DD03448007810F0800F28D03248007874
:1042E00010F0010F23D03048007810F0800F1ED05E
:1042F0000025002418E0FFF746FC24490860284800
:1043000001682248006801F07FFA0CD2641C022C7C
:1043100009DB0320FFF73FFAFFF778FAAFF234101A
:1043200001F024FC4FE56D1C052DE4DB05E016F1E2
:104330000A0F02DB312E00DC0A3E761C322EFFF61D
:1043400076AF1FE017480078002101EB400040B233
:10435000144908700F4801680C48006801F054FACD
:1043600008D811480078012101EB400040B20E4905
:10437000087007E00C480078002101EB400040B2D3
:10438000094908701EE50000A0000020A4000020DC
:10439000440000204C000020000020414800002084
:1043A000500000205400002055000020064880479F
:1043B00006480047FEE7FEE7FEE7FEE7FEE7FEE70A
:1043C000FEE7FEE7FEE7FEE799500008310100082E
:1043D00010B50446CA48844208D10121042000F0E7
:1043E00024FB0021042000F020FB46E0C548844265
:1043F00008D10121082000F018FB0021082000F05E
:1044000014FB3AE0C048844208D10121102000F09A
:104410000CFB0021102000F008FB2EE0BB4884427A
:1044200008D10121202000F000FB0021202000F015
:10443000FCFA22E0B648844208D10121402000F075
:10444000F4FA0021402000F0F0FA16E0B14884426E
:1044500008D10121802000F0E8FA0021802000F03E
:10446000E4FA0AE0AC48844207D10121801500F04B
:10447000DCFA0021A01500F0D8FA10BD10B501211A
:10448000084600F0D2FA0021012000F0CEFA10BD5B
:104490002DE9F041024600250026002000230024DB
:1044A000002791F803C00CF00F0591F803C01CF031
:1044B000100F03D091F802C04CEA0505B1F800C016
:1044C0001CF0FF0F31D0146800202BE04FF0010CDE
:1044D0000CFA00F3B1F800C00CEA03069E4220D1AA
:1044E00083004FF00F0C0CFA03F7BC4305FA03FCF2
:1044F0004CEA040491F803C0BCF1280F06D14FF038
:10450000010C0CFA00FCC2F814C00AE091F803C0D8
:10451000BCF1480F05D14FF0010C0CFA00FCC2F8B9
:1045200010C0401C0828D1D31460B1F800C0BCF101
:10453000FF0F34DD546800202EE000F1080C4FF02E
:10454000010808FA0CF3B1F800C00CEA03069E4219
:1045500021D183004FF00F0C0CFA03F7BC4305FA8E
:1045600003FC4CEA040491F803C0BCF1280F05D108
:1045700000F1080C08FA0CF8C2F8148091F803C096
:10458000BCF1480F07D100F1080C4FF0010808FA00
:104590000CF8C2F81080401C0828CED35460BDE847
:1045A000F0814FF6FF710180022181700421C170FA
:1045B00070470246002093680B4201D0012000E0C2
:1045C000002070470146886880B27047024600208C
:1045D000D3680B4201D0012000E000207047014663
:1045E000C86880B2704701617047416170470AB185
:1045F000016100E041617047C16070474FF4803253
:104600000A438261816182618269826970470246E0
:104610000020424B18684FF68073184040EA0210A1
:1046200008433E4B186070473D49C8617047F0B57C
:104630000A46002300240021002500F00046B6F1C0
:10464000004F02D1354EF16901E0344E7168C0F37C
:10465000034583B200F44016B6F5401F08D121F09F
:1046600070612E4E766826F070662C4F7E6012E0E8
:1046700000F48016B6F5801F06D1032606FA05F46D
:10468000A14341F0706106E0460D360103FA06F6DB
:10469000B14341F0706122B1460D360103FA06F6CE
:1046A000314300F00046B6F1004F02D11B4EF161DC
:1046B00001E01A4E7160F0BD30B500228B071C0F6F
:1046C0000F2303FA04F2154B08338C1053F82430EF
:1046D0009343124C08348D1044F8253023468C1037
:1046E00053F824308C07240F00FA04F423430B4CB6
:1046F00008348D1044F8253030BD0A4908607047F1
:1047000000080140000C014000100140001401406D
:1047100000180140001C0140002001400000014041
:1047200000002042DC002042DB48006840F001002D
:10473000D949086008464068D8490840D6494860C9
:1047400008460068D6490840D34908600846006812
:1047500020F4802008600846406820F4FE0048608D
:104760004FF41F0088607047CB49096821F48031FD
:10477000C94A11601146096821F480211160B0F521
:10478000803F03D0B0F5802F0ED106E0C249096802
:1047900041F48031C04A116007E0BF49096841F423
:1047A000A021BD4A116000E000BF00BF704710B5F6
:1047B00001460022002300204A11012A02D1B64CF2
:1047C000236806E0022A02D1B34C236A01E0B24C0E
:1047D000636A01F01F02012494401C4201D00120B1
:1047E00000E0002010BD70B500240025002600BFA9
:1047F0003120FFF7DCFF0646641CB4F5A06F01D042
:10480000002EF5D03120FFF7D2FF08B1012500E0DE
:104810000025284670BD014600209F4A106820F000
:10482000F80040EAC100106070479E490860704778
:1048300002460020984B586820F47C1042EA01039D
:104840001843954B58607047964908667047014673
:104850000020914A506820F00300084350607047E0
:104860008D48406800F00C007047014600208A4ADD
:10487000506820F0F0000843506070470146002067
:10488000854A506820F4E060084350607047014654
:104890000020814A506820F4605040EAC100506016
:1048A000704729B17C4A527A02437B4B5A7206E028
:1048B000794A527AC343DBB21A40774B5A72704737
:1048C00079490860704701460020734A506820F417
:1048D00040400843506070470021744A11706E4A8E
:1048E00082F82010012802D0042808D103E0012119
:1048F0006E4A117004E005216C4A117000E000BF9F
:1049000000BF70476A49086070476349096A0143FC
:10491000614A1162704767490860704730B50021ED
:104920000022002400235C4D6D6805F00C0121B1CC
:10493000042905D0082923D105E05F4D056022E058
:104940005D4D05601FE0544D6D6805F47012524DC9
:104950006D6805F48034022505EB92421CB9574D71
:10496000554305600BE04C4D6D6815F4003F03D0D6
:10497000524D5543056002E04F4D5543056002E03E
:104980004D4D056000BF00BF434D6D6805F0F0015F
:1049900009094B4D6B5C0568DD4045603E4D6D6817
:1049A00005F4E061090A464D6B5C4568DD408560B1
:1049B000394D6D6805F46051C90A414D6B5C45681D
:1049C000DD40C560344D6D6805F44041890B3D4DB7
:1049D0006B5CC568B5FBF3F5056130BD29B12E4AA6
:1049E000526902432C4B5A6104E02B4A52698243BC
:1049F000294B5A61704729B1274A92690243264BD5
:104A00009A6104E0244A92698243234B9A61704779
:104A100029B1214AD26902431F4BDA6104E01E4AE0
:104A2000D26982431C4BDA61704729B11A4AD268B5
:104A30000243194BDA6004E0174AD2688243164BEE
:104A4000DA60704729B1144A12690243124B1A61A5
:104A500004E0114A126982430F4B1A6170471A49E8
:104A6000086070470F49C86470470B49C8717047A8
:104A70000948406A40F08070074948627047014623
:104A80000020054A92680A4201D0012000E000207F
:104A90007047014988727047001002400000FFF81B
:104AA000FFFFF6FE00004242D800424220100240C2
:104AB000800442423C04424200127A0000093D0058
:104AC000AC000020BC0000204004424210B5044667
:104AD000FC48844209D101218803FFF7A6FF002189
:104AE0004FF48040FFF7A1FF32E0F748844209D13C
:104AF00001214804FFF7A6FF00214FF40030FFF723
:104B0000A1FF25E0F148844209D101218804FFF783
:104B100099FF00214FF48020FFF794FF18E0EC4844
:104B2000844209D10121C804FFF78CFF00214FF412
:104B30000020FFF787FF0BE0E648844208D10121FF
:104B40000805FFF77FFF00214FF48010FFF77AFF81
:104B500010BD2DE9F04786B005460E460024A2465A
:104B600000BFA1460027B08900B100BF2F462C8AA4
:104B70004CF6FF700440F08804432C82AC894EF65A
:104B8000F3100440B0883189084371890843044315
:104B9000AC81AC8A4FF6FF400440B0890443AC823C
:104BA00001A8FFF7BBFEC748874202D1DDF810A07D
:104BB00001E0DDF80CA0A88910F4004F08D00AEB42
:104BC000CA0000EB0A1031684900B0FBF1F807E0B9
:104BD0000AEBCA0000EB0A1031688900B0FBF1F85B
:104BE0006420B8FBF0F004012009642101FB108966
:104BF000A88910F4004F08D0322000EBC900B0FBA8
:104C0000F1F000F00700044308E0322000EB091047
:104C10006421B0FBF1F000F00F0004432C8106B0DA
:104C2000BDE8F0874FF41651016000218180C180FA
:104C300001810C21418100218181704710B502461C
:104C40000020108A4FF2FF0318400B884C88234342
:104C50008C882343CC8823431843108210BD002145
:104C6000018041808180C180704721B1828942F4F6
:104C70000052828104E082894DF6FF731A408281DE
:104C80007047F0B503460024002600250020A1F55A
:104C900010676A3F00D100BF1846C1F3421401F00B
:104CA0001F06012707FA06F5012C01D10C3004E09C
:104CB000022C01D1103000E014301AB107682F43E4
:104CC000076002E00768AF430760F0BD10B51AB196
:104CD000838A0B43838204E0838ACC43A4B22340BB
:104CE000838210BD028A4FF6F0731A400282028A54
:104CF0000A430282704782894FF2FF731A40828111
:104D000082890A438281704721B1828942F002027E
:104D1000828104E082894FF6FD731A4082817047D8
:104D2000028A4FF6DF731A400282028A0A43028225
:104D3000704721B1028A42F48042028204E0028A72
:104D40004BF6FF731A4002827047C1F3080282805B
:104D5000704701468888C0F308007047818941F098
:104D6000010181817047028BD2B20283028B42EA39
:104D7000012202837047028B02F47F420283028B7E
:104D80000A430283704721B1828A42F02002828264
:104D900004E0828A4FF6DF731A408282704721B1A5
:104DA000828A42F01002828204E0828A4FF6EF7318
:104DB0001A408282704721B1828A42F008028282C0
:104DC00004E0828A4FF6F7731A408282704721B15D
:104DD000828942F40042828103E08289C2F30E029A
:104DE0008281704721B1828A42F40062828204E0AB
:104DF000828A4FF2FF731A4082827047828A4FF68E
:104E0000FB731A408282828A0A438282704721B1F0
:104E1000828A42F00202828204E0828A4FF6FD73A7
:104E20001A408282704702460020B1F5007F00D10F
:104E300000BF13880B4201D0012000E00020704722
:104E400001F40072B2F5007F00D100BFCA430280B6
:104E5000704770B502460024002300250020A1F50C
:104E600010666A3E00D100BFC1F3421501F01F0376
:104E7000012606FA03F3012D02D19689334006E09C
:104E8000022D02D1168A334001E0968A33400C127B
:104E9000012606FA04F41688344013B10CB101203F
:104EA00000E0002070BD10B500220023A1F51064C1
:104EB0006A3C00D100BF0A1201249440A3B2DC4333
:104EC000048010BD0038014000440040004800400C
:104ED000004C00400050004036490143364A116002
:104EE000704770B5002100230F22C4784CB3324CB8
:104EF000246804F4E064C4F5E0644FEA1421C1F1CD
:104F0000040322FA01F2447804FA03F1847804EAF3
:104F1000020444EA01014FEA0111284C0678A15528
:104F2000047804F01F054FF0010404FA05F4057835
:104F30004FEA65154FF0E02606EB8505C5F8004100
:104F400009E0047804F01F050124AC401C4D0678EC
:104F5000761145F8264070BD1A4A0A4002431A4BA2
:104F60001A60704741B1194A126842EA00024FF0D4
:104F7000E023C3F8102D07E0144A126822EA000269
:104F80004FF0E023C3F8102D7047042808D14FF0EC
:104F9000E021096941F004014FF0E022116107E0CE
:104FA0004FF0E021096921F004014FF0E022116186
:104FB000704700000000FA050CED00E000E400E09E
:104FC00080E100E080FFFF1F08ED00E010ED00E051
:104FD00000210020674A126842F48032654B1A6053
:104FE00000BF644A126802F40030491C10B9B1F5E0
:104FF000A06FF6D15F4A126812F4003F01D0012081
:1050000000E00020012842D15B4A126842F0100201
:10501000594B1A601A46126822F003021A601A46A7
:10502000126842F002021A60524A5268514B5A60AA
:105030001A4652685A601A46526842F480625A60B0
:105040001A46526822F47C125A601A46526842F498
:10505000E8125A601A46126842F080721A6000BF65
:10506000444A126812F0007FFAD0424A526822F095
:105070000302404B5A601A46526842F002025A60DC
:1050800000BF3C4A526802F00C02082AF9D170476E
:1050900010B5FFF79DFF10BD10B53648006840F011
:1050A00001003449086008464068344908403149E5
:1050B000486008460068324908402E4908600846A2
:1050C000006820F4802008600846406820F4FE0054
:1050D00048604FF41F008860FFF7DAFF4FF0006070
:1050E0002849086010BD10B5002100200022214B86
:1050F0005B6803F00C0121B1042906D0082928D1EE
:1051000007E0214B214C236027E01F4B1F4C2360FD
:1051100023E0184B5B6803F47010164B5B6803F4D4
:105120008032022303EB904022B9194B4343174CC2
:1051300023600DE00F4B5B6813F4003F04D0144B69
:105140004343124C236003E00F4B43430F4C236057
:1051500003E00D4B0D4C236000BF00BF054B5B68A7
:10516000C3F303130B4CE15C084B1B68CB40074CAB
:10517000236010BD00100240002002400000FFF834
:10518000FFFFF6FE08ED00E000127A00C0000020EC
:1051900000093D00C40000202DE9F041002425460F
:1051A000002905DA01240027D0EB070067EB010195
:1051B000002B05DA0027D2EB0702012567EB03037A
:1051C00000F042FB86468C4617461E46AC4204D091
:1051D0000025D0EB050E65EB010C24B10020D2EBCD
:1051E000000760EB0306704661463A463346BDE869
:1051F000F081202A04DB203A00FA02F100207047F7
:105200009140C2F1200320FA03F319439040704704
:10521000202A06DBCB17203A41FA02F043EAE0737A
:1052200006E041FA02F3D040C2F120029140084367
:1052300019467047D2B201E000F8012B491EFBD29B
:1052400070470022F6E710B50446084611460246AC
:105250002046FFF7EFFF204610BD30B50446002082
:10526000034600E05B1C934203D2E05CCD5C401B34
:10527000F8D030BDF0B480EA0102D20F4300B3EBA6
:10528000410F02D20346084619464B0042D0C30DD7
:10529000DDB2C1F3C7542C1B202C35DAC1F3160143
:1052A00041F4000502B16D42C4F1200605FA06F191
:1052B00025412844B3EBD05F23D0C2B1012CA0EB31
:1052C000C35009DCF0BC4FF0004202EAC35200F5C3
:1052D0000000DBB200F0F4BA400000F1807000EB97
:1052E000C350A0F1807040EAD170490009E049083C
:1052F00041EAC071A0EBC35000F50000400800EB8C
:10530000C350F0BC00F0D3BA5142012303EB41017A
:10531000801AF6E7F0BC704781F00041AAE780F000
:105320000040A7E780EA010210B502F00042400009
:1053300026D04B0023D04FEA106101EB1361C0F37C
:105340005600C3F3560340F4000043F40003A0FBEF
:105350000330A1F17F014FEA00401C0401D000F1AD
:10536000010050EA134001D44000491EC3B20C06AC
:1053700004EBD010401C4008802B02D003E000203A
:1053800010BD20F00100002900DA0020104310BDFC
:1053900080EA010202F0004330B430F0004221F014
:1053A000004015D0A0B1C0F3C755C2F3C754C2F333
:1053B0001601C0F31600651B41F4000140F4000023
:1053C0007D35814201D36D1C00E04900002D02DAD9
:1053D00030BC002070474FF400020024814201D30A
:1053E000091A144352084FEA4101F7D151B18142E1
:1053F00002D14FF0004105E002D24FF0010101E07F
:105400006FF0010104EBC55030BC184400F04FBAF6
:105410002DE9FE4F074681EA0300C00F0E460190BA
:1054200021F0004123F00044B81AA14105D23846CA
:10543000314617461E460B46024623F000401043F5
:1054400004D13846314603B0BDE8F08F350DC5F3C1
:105450000A00C3F30A510290401A0090402867DA0C
:10546000C3F3130040F4801B0198924620B100233F
:10547000D2EB030A63EB0B0B00985946C0F14002D4
:105480005046FFF7B6FE80460C4650465946009AF5
:10549000FFF7BEFEC0197141EF1785EA11533B4378
:1054A0003FD0019A4AB3009A012A11DC0022801AE7
:1054B00061EB05514FF0004303EA0555CDE90025A6
:1054C000801841F580114246234600F035FABAE7CC
:1054D0002E050025401B61EB0601401941F58012A5
:1054E000001852412818A6F5001343EB020140EAC8
:1054F000D47018EB0808644113E064084FEA3808D8
:105500004FF0000244EAC0744FEA0553801A61EB81
:105510000301801841F5801149084FEA30008018D6
:1055200059414246234603B0BDE8F04F00F0F7B9B9
:105530000198012240000023D0EB020263EBE073EC
:1055400001984FEAE074381A66EB0401EBE783F048
:1055500000435DE781F000415AE72DE9FE4F81EA03
:10556000030421F0004504F0004423F000414FF013
:10557000000A009450EA050302D052EA010304D164
:105580000020014603B0BDE8F08FC1F30A53C5F314
:105590000A542344A3F2F3330193A0FB02B3C5F3EF
:1055A000130545F4801CC1F3130141F480180CFB72
:1055B000023300FB083E810A930A41EA8C5143EA18
:1055C0008853A1FB03474FEA9C2505FB03734FEA71
:1055D000982601FB06373D05260545EA1435BBEB49
:1055E00006016EEB0503850E920E45EA8C1542EA24
:1055F0008812A5FB0206261E67EB00070C0D44EA85
:105600000334A61947EB1350C1F313044FF0000302
:105610001946E5FB02014FEA033545EA1455019BA3
:105620004FEA0432009CA3F10C03CDE900A445EA43
:10563000060502932B4600F07FF9A3E72DE9F04D14
:1056400081EA030404F0004B21F0004714464FF0B8
:10565000000A23F0004150EA070220D054EA010278
:105660001DD0C1F30A550246C1F31300C7F30A5611
:10567000C7F3130340F4801143F48013A6EB05082D
:10568000101BD64608F2FD3873EB010002D308F177
:10569000010801E092185B41B8F1000F03DA002025
:1056A0000146BDE8F08D00204FF480150646074600
:1056B0000EE0B2EB040C73EB010C04D3121B064397
:1056C00063EB01032F436D084FEA300092185B41F2
:1056D00050EA050CEDD152EA030012D082EA040030
:1056E00083EA0105284303D100224FF0004308E07C
:1056F000101B8B4102D20122002302E06FF0010255
:1057000053101AEB060047EB085110EB0A0041EB6F
:105710000B01BDE8F04D00F002B9C10F80EAE07066
:105720000844CA079623002100F0CAB89623002235
:10573000114600F0C5B800F0004220F00040C10D55
:10574000C0F3160040F400007F2901DA0020704702
:10575000962903DCC1F19601C84001E096398840E2
:10576000002AF4D04042704720F00040C10DC0F341
:10577000160040F400007F2901DA002070479629C6
:1057800003DCC1F19601C8407047963988407047E4
:1057900000F0004230F000400DD0C10D01F5607105
:1057A00042EA01510022C0F31600520742EAD00239
:1057B00040071143704700200146704701F0004246
:1057C00030B421F0004150EA010306D00B0DA3F5DF
:1057D0006073C1F31301002B02DC30BC0020704762
:1057E000440F44EAC104C100A01830BC00EBC35010
:1057F00000F05DB8002801DBC0F10040002901DBAA
:10580000C1F1004181427047002801DBC0F1004036
:10581000002901DBC1F100418842704730B50B46D9
:10582000014600202022012409E021FA02F59D42D0
:1058300005D303FA02F5491B04FA02F52844151EA4
:10584000A2F10102F1DC30BD2DE9F05F0546002038
:1058500092469B4688460646814640241DE02846DF
:1058600041464746224600F071F9B0EB0A00524625
:105870005B4671EB0B0110D3104619462246FFF729
:10588000B8FC2D1A67EB01084F4622460120002183
:10589000FFF7AFFC17EB00094E41201EA4F10104F5
:1058A000DDDC484631462A464346BDE8F09F0029E4
:1058B000A8BF7047401C490008BF20F00100704796
:1058C00010B4B0FA80FC00FA0CF050EA010404BFF6
:1058D00010BC704749B1CCF1200421FA04F411FA4C
:1058E0000CF118BF012121430843A3EB0C01CB1D90
:1058F0004FEA00614FEA102048BF0020BCBF10BC37
:10590000704700EBC35010440029A4BF10BC70477F
:10591000401C490008BF20F0010010BC704710B5C2
:10592000002B08DA401C41F1000192185B411A4338
:1059300001D120F0010010BD2DE9FF4D934611B1BA
:10594000B1FA81F202E0B0FA80F220329246FFF71B
:1059500050FC039A0746884640EA0B0011435B4619
:10596000084304D13846414604B0BDE8F08D1146E5
:1059700053EA020016D0CAF14002584600F0E6F899
:1059800004460D464FF00106584652460399FFF76C
:1059900030FC084300D10026344345EAE67527432E
:1059A00045EA08080E984FF00005A0EB0A014FEAFF
:1059B000D7200A314FEA47532A4640EA48504FEA77
:1059C000D82402D500200146CEE7281844EB015127
:1059D000DDE90C45001904B06941BDE8F04D9EE7D2
:1059E00070B521F0004303430CD0C1F30A540026E4
:1059F000D4EB060566EB0603D417AD1AA34102DB10
:105A00000020014670BD001C41EB025170BD2DE924
:105A1000F04D00231A461B1A8A4103DB0020014681
:105A2000BDE8F08DC1F30A52C1F3130141F48015B2
:105A30004FF0000BD10702D100186D41521E002714
:105A400040F2FF11044601EB620A3E463846B84672
:105A5000024600204FF4801100F078F8C01971411F
:105A60003B1846EB0102B4EB030C75EB020C04D3BC
:105A7000E41A65EB020507460E46241908F10100F9
:105A80006D4180463428E3DDF81946EB06014FF0FE
:105A9000FF32001B1346A94101D3002213461BEB22
:105AA000070046EB0A51BDE8F04DFFF738BF0EB5D1
:105AB000C10F80EAE0700844CA07002140F2334376
:105AC0008DE80E000A460B46FFF736FF03B000BD17
:105AD000C1F30A52C1F3130140F2FF3341F48011C4
